:020000040000fa
:080000000002040000000000f2
:020000040000fa
:10000800d2020000d2020000d2020000d202000098
:10001800d2020000d2020000d2020000d202000088
:10002800d2020000d2020000d2020000d202000078
:10003800d2020000d2020000d2020000d202000068
:020000040000fa
:100400000f0021000eff28000e01880000000000f0
:10041000000020000000e000020032000001200087
:10042000200288000c000700403e20000100200050
:100430000f000700000020000000e0000200320072
:1004400000000200000000002a030200000000007b
:100450000040da000000fe00200020000000e00064
:100460000200320010002000900188000000060009
:10047000a1028800800078000000eb001a0037001d
:10048000e280400054a0b4009101ba00e280400034
:1004900054a0b4009102ba00e280400054a0b4001d
:1004a0000002eb00472bde00f507b200a601880032
:1004b000602ce10008003a000049eb000201e8006e
:1004c000020039003420ec0002f0a0008301e900b2
:1004d000f9ff3e00040037006128e100010032000e
:1004e0000082eb00040007001101ba000200e000e6
:1004f000e3ff3a000000060004d0a300e20f490029
:100500001c003900810278003549ba000201e80078
:10051000020039003420ec0002f0a0008301e90061
:100520000f0032002549ba000201e800020039003c
:100530003420ec0002f0a0008301e9000800320042
:100540000400e0000600320015c9ba000201e8000c
:10055000020039003420ec0002f0a0008301e90021
:100560008180e80054a0b4000300e000e2ff3a00fc
:10057000000006009102ba00055978008301e900e5
:10058000f7ff3200c82ade00055978008301e90030
:10059000f3ff32000400e000f1ff320011d9ba008d
:0c05a000eeff37000040da000000fe0013
:020000040000fa
:1005ac000000fa00a4042000343a8800253a8000a8
:1005bc0004fe2f0004826200243a8800243a800052
:1005cc000460a1000470a100243a880016002000e9
:1005dc0084072000a509200037742000844b780084
:1005ec00854b7800864b7800143a80000403780021
:1005fc000600a0006404200075052000277420006c
:10060c00844b7800854b7800864b78000000000006
:10061c00153a800004002700848262000400210047
:10062c00848f5200faff3a0000000000153a800057
:10063c000402200004826200e00f5200fbff320033
:10064c000080fa00000006000000fa00d4ff07004a
:10065c000082eb00047088000082eb00847088003c
:10066c000002eb00f47088001e4ea900104ea90089
:10067c00004ea900006ea900124ea900024ea9005e
:10068c00026ea900180007000100370000000000ee
:10069c001411800061026200e00f5200fbff320077
:1006ac00147080004222de00614262000404a20049
:1006bc00614262000482fb00610262004222dd00a2
:1006cc0016708000b5ff2f008502630005027200d2
:1006dc00147088001d000700004278000440780068
:1006ec0014000700eaff37000000fa0035348000e0
:1006fc00f40f2c00848262000410200005027200aa
:10070c00343488002536800004f82f00848262007f
:10071c0004022000050272002436880021e2a800a1
:10072c002342a80054022000441188000080fa00e3
:10073c00000006000200fa00004f78001e02fb00c9
:10074c00241188000080fa00000006000000fa0066
:10075c003411800004427800044078000080fa00d4
:10076c00000006000800fa002007980031079800e6
:10077c0064024700140798000002eb00040f780095
:10078c000002eb00040f7800070037001e0278000f
:10079c009e029000048242001442780004407800cb
:1007ac00e4ff07001e0fe8001e027800e30f520062
:0c07bc00f6ff34000080fa000000060088
:020000040000fa
:0407c800000000002d
:020000040000fa
:020000040005f5
:045fe000dfff0000df
:020000040000fa
:020000040005f5
:045fe8007fff000037
:020000040000fa
:020000040005f5
:045fec007bff000037
:020000040000fa
:020000040005f5
:045ff00078ff000036
:00000001FF
