:020000040000fa
:080000000002040000000000f2
:020000040000fa
:10000800d2020000d2020000d2020000d202000098
:10001800d2020000d2020000d2020000d202000088
:10002800d2020000d2020000d2020000d202000078
:10003800d2020000d2020000d2020000d202000068
:10004800d2020000d2020000d2020000d202000058
:10005800d2020000d2020000d2020000d202000048
:10006800d2020000d2020000d2020000e407000021
:10007800d2020000d2020000d2020000d202000028
:10008800d2020000d2020000d2020000d202000018
:10009800d2020000d2020000d2020000d202000008
:1000a800d2020000d2020000d2020000d2020000f8
:020000040000fa
:100400004f0021000eff28000e01880000000000b0
:10041000000020000000e000020032000001200087
:10042000200288000c0007006096200001002000d8
:100430000f000700000020000000e0000200320072
:100440000000020000000000e408020000000000bc
:100450000040da000000fe00200020000000e00064
:100460000200320010002000900188000000060009
:10047000a1028800800078000000eb001a0037001d
:10048000e280400054a0b4009101ba00e280400034
:1004900054a0b4009102ba00e280400054a0b4001d
:1004a0000002eb00472bde00f507b200a601880032
:1004b000602ce10008003a000049eb000201e8006e
:1004c000020039003420ec0002f0a0008301e900b2
:1004d000f9ff3e00040037006128e100010032000e
:1004e0000082eb00040007001101ba000200e000e6
:1004f000e3ff3a000000060004d0a300e20f490029
:100500001c003900810278003549ba000201e80078
:10051000020039003420ec0002f0a0008301e90061
:100520000f0032002549ba000201e800020039003c
:100530003420ec0002f0a0008301e9000800320042
:100540000400e0000600320015c9ba000201e8000c
:10055000020039003420ec0002f0a0008301e90021
:100560008180e80054a0b4000300e000e2ff3a00fc
:10057000000006009102ba00055978008301e900e5
:10058000f7ff3200c82ade00055978008301e90030
:10059000f3ff32000400e000f1ff320011d9ba008d
:1005a000eeff37000040da000000fe0014002000db
:1005b00068003700f4ff2f00660037000001be001e
:1005c0001b0007000470a70003f0a10003f8a300bc
:1005d00013003a006509b10010003200090035002f
:1005e0006928e10002003500010028000000050034
:1005f00000004000818048008502e900fcff3a00cd
:1006000000000600f88f4200050035008100d1008f
:100610000080d3008502e800fcff3a0000000600dd
:100620008000eb00000005006011b8006400370096
:10063000c70ade00f107b200f50fb2000800320071
:10064000e1cf4200020032000170a000240005004a
:10065000810f70000100320004080500440005000d
:10066000810f700002003a00140005008502e900c5
:100670000000400081c04800fcff3b000170a0006a
:1006800024000500889fbe008a9fbe008c1f780052
:10069000a0000700a700330003866c006450e1004f
:1006a000240032006420e100270032006150e100a4
:1006b000220032006120e100210032008b854200df
:1006c000eb07b1000134b800003ab800080442005a
:1006d00089844a00013ab8000030b80088804000a0
:1006e00009014a00040033000000400081804800f6
:1006f000020149008b05e900c909dd008301700092
:100700000100320013002000c814de004814dd0090
:100710004709de001200b200c808de00088470003d
:100720005600070001f0a1000cf0a70001f0a000a6
:10073000890037006120e1008b0032000801be0013
:100740000200be00f7ff37006150e100fcff3a00f5
:1007500085003700889fbe008a9fbe00841f7800f6
:100760006c0007004f00780011003300f0ff2f00ed
:10077000838f6c0006003b00040565000a00a7009b
:100780000800370009f0a60010002000080037001c
:10079000820f5400838f5c0003003900100020009a
:1007a00001003e000000200009f0a7000000ea0060
:1007b0004f05be004f04be000000e0000000060030
:1007c000889fbe008a9fbe000082700004027100f4
:1007d00004827100260032000004be000200be0048
:1007e0006011b8006b092000950220000182cf0043
:1007f0000a0039000541b1000082cf00070039002e
:100800000541b1000982cf00040039000541b10063
:100810000882cf00010039000541b10005425200b5
:10082000120032000a003b00828171006101640005
:100830008100d1000080d3008984d3000884d300d4
:100840008b05e8000442e800f7ff3a000700370094
:100850000804440089844c0000004800818048005e
:100860008b05e9000442e900f9ff3a0003000700a4
:100870004f05be004f04be000000060081002000ae
:10088000618055000b003d000b00200061fe2f0031
:100890000100e1001d0034008281710061016400eb
:1008a0008904d1000884d3000000e800faff3a0070
:1008b000710020006100640003007000020060000d
:1008c0000900320061044400e0844c000988a5005e
:1008d000050032008b05e8006808e10002003a00dc
:1008e0008904d1000884d300f20f20000258e100ef
:1008f00005003d00c75ddd00f907b2008980750085
:1009000008007800000006000bf827008b00780034
:10091000000005000004be0045ff07000003be0004
:100920000405be000200be0041ff0700844f7500b1
:10093000000006000200be006450e1000500360021
:100940006420e100020036000968a30001003a00bb
:100950000800be000160a0004f0678004f05be00f1
:100960004f04be0000000600f0ff2f00f1ff27003b
:04097000f9ff370054
:020000040000fa
:100974000000fa000002eb000460880023eca800e9
:1009840023cca90043eca80043cca90063eca80045
:1009940063cca900116ea90011aea90011eea90043
:1009a400843e2000246088000002eb00446188003b
:1009b4000002eb00446288000002eb0044638800fc
:1009c4000002eb00346188000002eb00346288000e
:1009d4000002eb00346388000002eb00046388002b
:1009e400046380000462880004628000046188005b
:1009f400340020002463880024638000246288007b
:100a04002462800024618800146080000400a10036
:100a14000410a1000420a1001460880001eca800c7
:100a24000080fa00000006000000fa00186ea8001a
:100a340018eea800088ea8002268a800444280008e
:100a440004c0a00004d0a10004e0a1004442880036
:100a54000268a9000080fa00000006000000fa0005
:100a6400106ea80010eea800008ea8000080fa0006
:100a7400000006000000fa00104ea900004ea90074
:100a8400006ea9000080fa00000006000400fa00cd
:100a9400000f780011079800246080009e027800ff
:100aa400848f52000200360024608000040f780016
:100ab4001e029000e10f52009c003a0094708000e6
:100ac40068026200e00f5200160032009570800048
:100ad4000408200004826200e00f5200110032007a
:100ae4001470800070026200e00f52000d003a00a2
:100af40013aea800136ea90013eea8000002eb00c9
:100b0400346388001e027800346288000002eb001f
:100b140034618800024ea800124ea800026ea9009b
:100b2400260137009470800068026200e00f5200d2
:100b340016003a00957080000408200004826200c8
:100b4400e00f520011003200147080007002620045
:100b5400e00f52000d003a0013aea800136ea80077
:100b640013eea9000002eb00346388001e02780033
:100b7400346288000002eb0034618800024ea80051
:100b8400124ea900026ea9000c0137009470800077
:100b940068026200e00f520016003a00957080006f
:100ba4000408200004826200e00f520011003200a9
:100bb4001470800070026200e00f52000d003200d9
:100bc40013aea900136ea80013eea8000002eb00f8
:100bd400346388000002eb00346288001e0278004f
:100be40034618800024ea800124ea900026ea800cb
:100bf400f20037009470800068026200e00f520037
:100c040016003a00957080000408200004826200f7
:100c1400e00f520011003a0014708000700262006c
:100c2400e00f52000d00320013aea800136ea900ad
:100c340013eea8000002eb00346388000002eb000e
:100c4400346288001e02780034618800024ea900d4
:100c5400124ea900026ea800d800370094708000dc
:100c640068026200e00f52001600320095708000a6
:100c74000408200004826200e00f520011003a00d0
:100c84001470800070026200e00f52000d00320008
:100c940013aea800136ea80013eea9001e0278007c
:100ca400346388000002eb00346288000002eb0029
:100cb40034618800024ea900124ea800026ea800fa
:100cc400be0037009470800068026200e00f52009a
:100cd400b500320095708000040820000482620090
:100ce400e00f5200b2003a001470800070026200fb
:100cf400e00f5200b0003a0013aea900136ea80032
:100d040013eea8001e027800346388000002eb0092
:100d1400346288000002eb0034618800024ea900ae
:100d2400124ea800026ea900a40037001e02900013
:100d3400e00f5200a1003a00947080006802620043
:100d4400e00f520016003200957080000408200065
:100d540004826200e00f520011003200147080001f
:100d640070026200e00f52000d003a0013aea800ba
:100d7400136ea90013eea8000002eb003463880090
:100d84000002eb00346288001e027800346188009f
:100d9400024ea800124ea800026ea9008700370078
:100da4009470800068026200e00f520016003a005e
:100db400957080000408200004826200e00f520055
:100dc400110032001470800070026200e00f5200c3
:100dd4000d003a0013aea800136ea80013eea9008c
:100de4001e027800346388000002eb00346288003d
:100df4000002eb0034618800024ea800124ea900e4
:100e0400026ea9006d0037009470800068026200d1
:100e1400e00f520016003a0095708000040820008c
:100e240004826200e00f520011003200147080004e
:100e340070026200e00f52000d00320013aea900f0
:100e4400136ea80013eea8001e0278003463880015
:100e54000002eb00346288000002eb003461880079
:100e6400024ea800124ea900026ea80053003700db
:100e74009470800068026200e00f520016003a008d
:100e8400957080000408200004826200e00f520084
:100e940011003a001470800070026200e00f5200ea
:100ea4000d00320013aea800136ea90013eea800c3
:100eb4000002eb00346388001e027800346288006c
:100ec4000002eb0034618800024ea900124ea90012
:100ed400026ea80039003700947080006802620036
:100ee400e00f5200160032009570800004082000c4
:100ef40004826200e00f520011003a001470800076
:100f040070026200e00f52000d00320013aea80020
:100f1400136ea80013eea9000002eb0034638800ee
:100f24001e027800346288000002eb0034618800fd
:100f3400024ea900124ea800026ea8001f0037003e
:100f44009470800068026200e00f52001b003200bf
:100f5400957080000408200004826200e00f5200b3
:100f640016003a001470800070026200e00f520014
:100f740012003a0013aea900136ea80013eea800e5
:100f84000002eb00346388000002eb003462880046
:100f94001e02780034618800024ea900124ea80097
:100fa400026ea900050037000000000003003700ae
:100fb4000000000001003700000000000080fa007b
:100fc400000006003600f800809fbe00829fbe002d
:100fd400849fbe00869fbe00889fbe000000fa006a
:100fe400048080001580800018c0b3006011b80030
:100ff4000400be006cfd070000027800e00f520000
:10100400010035000044eb00e04f540015003200ad
:1010140004808000158080000404be0009f0a20052
:1010240024608000050020000400be007dfd070050
:101034000002be000401be000800be0090fd0700cf
:101044000002be000400be005bfd07000002be00fb
:10105400040278008000eb00040078008bfe070097
:101064001e003700048080001580800018c0b30083
:101074006011b8000400be004dfd070000027800b6
:10108400e00f520001003d000044eb00e04f54002b
:101094001200320024608000050020000400be001d
:1010a40060fd07000003be000480800015808000fe
:1010b4000401be000600be0071fd07000002be0070
:1010c4000400be003cfd07000002be0004027800dc
:1010d40011002000040078006cfe07000268a900db
:1010e4000080fa004f04be004f03be004f02be0052
:1010f4004f01be004f00be003600f900004006005c
:101104000000fa005bfe070019fe070053fe07000b
:1011140045fe07000080fa00000006000000fa0007
:10112400a4042000343a8800253a800004fe2f00ed
:1011340004826200243a8800243a80000460a100fa
:101144000470a100243a88001600200084072000bf
:10115400a509200037742000844b7800854b780063
:10116400864b7800143a8000040378000600a0003f
:10117400640420007505200027742000844b780047
:10118400854b7800864b780000000000153a8000fb
:10119400040027008482620004002100848f52002e
:1011a400faff3a0000000000153a80000402200013
:1011b40004826200e00f5200fbff32000080fa005c
:1011c400000006000000fa00d4ff07000082eb00d4
:1011d400047088000082eb00847088000002eb0039
:1011e400747088000002eb00f4708800c4ff0700ec
:1011f400ffff37000000fa0035348000f40f2c00a4
:1012040084826200041020000502720034348800d5
:101214002536800004f82f00848262000402200036
:10122400050272002436880021e2a8002342a800a7
:1012340054022000441188000080fa0000000600d7
:101244000200fa00004f78001e02fb0024118800ff
:101254000080fa00000006000000fa00341180004b
:1012640004427800044078000080fa000000060080
:101274000800fa002007980031079800640247002c
:10128400140798000002eb00040f78000002eb0042
:10129400040f7800070037001e0278009e029000b9
:1012a400048242001442780004407800e4ff0700fe
:1012b4001e0fe8001e027800e30f5200f6ff340010
:0812c4000080fa0000000600a2
:020000040000fa
:1012cc0000100000040000008200000000008000fc
:0812dc003f00000000000000cb
:020000040000fa
:020000040005f5
:045fe000dfff0000df
:020000040000fa
:020000040005f5
:045fe8007fff000037
:020000040000fa
:020000040005f5
:045fec007bff000037
:020000040000fa
:020000040005f5
:045ff00038ff000076
:00000001FF
